:020000040800F2
:100000005007002089010008A9130008A113000867
:10001000A513000845020008BD13000800000000F9
:10002000000000000000000000000000B113000804
:100030004902000800000000AD130008B5130008D5
:10004000A3010008A3010008A3010008A301000800
:10005000A3010008A3010008A3010008A3010008F0
:10006000A3010008A3010008A3010008A3010008E0
:10007000A3010008A3010008A3010008A3010008D0
:10008000A3010008A3010008A3010008A3010008C0
:10009000A3010008A3010008A3010008A3010008B0
:1000A000A3010008A3010008A3010008A3010008A0
:1000B000A3010008A3010008A3010008A301000890
:1000C000A3010008A3010008A3010008A301000880
:1000D000A3010008A3010008A3010008A301000870
:1000E000A3010008A3010008A301000800F002F822
:1000F00000F03AF80AA090E8000C82448344AAF188
:100100000107DA4501D100F02FF8AFF2090EBAE885
:100110000F0013F0010F18BFFB1A43F0010318473B
:10012000A4450000C4450000103A24BF78C878C137
:10013000FAD8520724BF30C830C144BF04680C60ED
:10014000704700000023002400250026103A28BF35
:1001500078C1FBD8520728BF30C148BF0B60704739
:100160001FB51FBD10B510BD00F031F81146FFF7E7
:10017000F7FF01F0CDFE00F04FF803B4FFF7F2FFF8
:1001800003BC00F057F800000948804709480047C1
:10019000FEE7FEE7FEE7FEE7FEE7FEE7FEE7FEE737
:1001A000FEE7FEE704480549054A064B7047000094
:1001B000B9130008ED00000850010020500700208E
:1001C0005003002050030020704770477047754669
:1001D00000F02CF8AE4605006946534620F00700B3
:1001E000854618B020B5FFF7DDFFBDE820404FF091
:1001F00000064FF000074FF000084FF0000BAC4630
:10020000ACE8C009ACE8C009ACE8C009ACE8C0097A
:1002100021F007018D46704710B50446AFF300800A
:100220002046BDE81040FFF7A8BF00000048704717
:100230005000002001491820ABBEFEE72600020056
:1002400070470000FEE70000704700002DE9F04F06
:1002500082B00E68002E00F0038141F20042C4F229
:100260000102042340F2004E904208BF03234FF6E0
:10027000FF7CC4F2010E009300240123C1F2100C94
:100280004FF0000A4FF0000949E000BF012704F0D9
:100290000C030F229A402BEA020207FA03F34FEAFB
:1002A0009A051A4346F82520D1F804B040F20C45CF
:1002B0005FEACB22DEF8082054BF22EA080242EAB5
:1002C0000802C4F20105CEF808202A685FEA8B23F1
:1002D00054BF22EA080242EA08022A605FEA8B332E
:1002E000DEF8042054BF22EA080242EA08025FEA6C
:1002F000CB33CEF80420DEF800204FF0010354BFCA
:1003000022EA080242EA0802CEF800200E680AF14A
:10031000010A36FA0AF204F1040400F0A18003FA9B
:100320000AF816EA080FF1D04E68664512DC122E64
:1003300056D8DFE806F0350B454955555555555506
:10034000555555555555554D510000BFD1F80C9098
:1003500046E000BF4FF6FF72C1F2210296420FDC69
:100360000022C1F2110296421AD00022C1F21202FA
:10037000964215D00022C1F22102964210D02FE001
:100380000022C1F2220296420AD00022C1F23102BA
:10039000964205D00022C1F23202964220D100BF1F
:1003A0008A684AB1012A14BFC0F81480C0F81080CE
:1003B0004FF0080914E000BF4FF0040910E000BF3F
:1003C000CA6802F108090BE04FF0000908E000BF1D
:1003D000CA6802F1040903E0CA6802F10C0900BF0F
:1003E00022460646BAF1080F24BF203A0436376881
:1003F0000F25954027EA050509FA02F22A433260E3
:10040000CA79D2067FF582AF41F21803C4F2020323
:100410001A68AEF57E7642F001021A601A6802F0A0
:1004200001020192019A2AF0030256F802B040F646
:100430000002C4F20102904210D040F60042C4F221
:10044000010290423FF422AF41F20002C4F20102E5
:10045000009F904208BF022719E700BF002716E758
:1004600002B0BDE8F08F0000002A08BF0904016156
:100470007047000040F24810C2F200000068704768
:1004800040F2400040F24811C2F20000C2F2000106
:1004900000780A68104408607047000080B542F296
:1004A0000000C4F20200016841F010010160032065
:1004B00000F07AF80F2000F005F800F027F800208F
:1004C00080BD000070B540F24006C2F2000640F266
:1004D00048013278C2F200014FF47A730968B3FB25
:1004E000F2F20446B1FBF2F1084600F027FB0F2CB4
:1004F0004FF0010508D838B94FF0FF3021460022EF
:10050000002500F025F87460284670BD82B041F2E5
:100510001800C4F202000168022241F001010160EA
:10052000016801F0010101910199416841F0805198
:100530004160406800F08050009000980420C4F2B0
:100540000100016862F31A61016002B070470000A7
:1005500010B54EF60C5CCEF2000CDCF80030C3F3A4
:10056000022E8EF00704042C28BF0424BEF10303DE
:100570004FF0FF3E0EFA04F438BF0023A143994028
:100580000EFA03F39A43114300F00F0200F16043A7
:100590000901043A03F564436244002848BF02F1AC
:1005A0000C03197010BD00004EF60C51CEF2000184
:1005B0000A684FF6FF031A4060F30A2242F0806097
:1005C00040F0FD70086070472DE9F04381B00028CD
:1005D00000F0858042F20008C4F202080446D8F810
:1005E00000000D4600F0070088420CD2D8F8000049
:1005F00020F007002843C8F80000D8F8000000F0F9
:100600000700A8426BD1206841F204098107C4F2B7
:10061000020917D5410705D5D9F8001041F4E0616A
:10062000C9F80010010705D5D9F8001041F4605150
:10063000C9F80010D9F80010A26821F0F0011143A8
:10064000C9F80010C00741D1D8F8000000F0070039
:10065000A8420CD9D8F8000020F007002843C8F8B9
:100660000000D8F8000000F00700A84237D1206849
:10067000410707D5D9F80010E26821F4E061114381
:10068000C9F80010000708D5D9F80000216920F446
:10069000605040EAC100C9F80000D9F8002002F01B
:1006A0000C00082841F20020C0F27A0050D144F238
:1006B000B463C2F38341C0F60003595CD2033BD458
:1006C00040F60010C0F23D00484341E06068022857
:1006D0000AD001282AD159F8041C890308D4012022
:1006E00001B0BDE8F08300BF59F8041C8901F6D5BC
:1006F000D9F8001021F003010843C9F80000FFF702
:10070000B9FE064641F28837D9F80000616800F06A
:100710000C00B0EB810F97D0FFF7ACFE801BB84206
:10072000F2D9032001B0BDE8F08300BF59F8041CE2
:100730008907D4D5DCE700BFD9F8002044F2B263C2
:10074000C2F34042C0F600039A5C4843B0FBF2F0AB
:10075000D9F8001044F2A262C1F30311C0F60002FE
:10076000515C40F2480220FA01F140F24400C2F22A
:1007700000000068C2F200021160FFF7A3FE002033
:1007800001B0BDE8F08300002DE9F04182B00028FF
:1007900068D00446007841F20006C007C4F20206A1
:1007A00025D0706800F00C0004281BD0706800F0A1
:1007B0000C00082802D17068C00313D460680028B8
:1007C00000F06881B0F5A02F00F07C81B0F5803F8B
:1007D00000F07C81306820F480303060306820F494
:1007E000802076E13068800301D56068D0B320783E
:1007F000800718D5706810F00C0F07D0706800F0F3
:100800000C0008286ED17068C0036BD43068800774
:1008100002D52069012825D13068616920F0F800EF
:1008200040EAC1003060207800071FD420784007DC
:1008300032D4E56995B1706800F00C00082840F0EA
:100840008F80012D0ED07068216A00F480328A42B8
:1008500008D1616A00F47010884203D1002002B010
:10086000BDE8F081012002B0BDE8F081A069002858
:1008700062D00020C4F242200121C0F88014FFF7AA
:10088000F9FD0546706A800700F18C80FFF7F2FDE4
:10089000401B0228F6D92AE1F06910F0805808D1EF
:1008A000F06940F08050F061F06900F080500090F5
:1008B000009847F20007C4F200073868C00529D441
:1008C000386840F480703860FFF7D4FD054600BFFB
:1008D0003868C0051ED4FFF7CDFD401B6428F7D94A
:1008E00005E100BF2069002840F20000C4F2422068
:1008F00000F0828001210160FFF7BCFD054600BFCA
:10090000306880073FF588AFFFF7B4FD401B022831
:10091000F6D9ECE0E068002800F08080052800F0BF
:100920009780012800F09880306A20F00100306242
:10093000306A20F0040092E00020C4F2422000213E
:10094000C0F88014FFF796FD054600BF706A800767
:100950007FF56CAFFFF78EFD401B0228F6D9C6E08D
:100960000027C4F2422700203866FFF783FD022DDE
:1009700005460BD13068800140F1BE80FFF77AFD5B
:10098000401B02284FF00300F4D968E7306880016B
:100990007FF564AFFFF76EFD401B02284FF00300A8
:1009A000F4D95CE740F24800C2F20000006844F667
:1009B000D351C1F26201A0FB0101480A019000BFBE
:1009C00000BF0198411E002801913FF42FAF00BFE6
:1009D0000198411E002801913FF428AF00BF019803
:1009E000411E002801913FF421AF00BF0198411E34
:1009F00000280191E4D119E700210160FFF73AFDD9
:100A0000054600BF306880077FF50DAFFFF732FD68
:100A1000401B02284FF00300F4D920E7306A20F091
:100A200001003062306A20F004003062FFF722FDDE
:100A3000054641F2883700BF306A800720D5FFF7AE
:100A400019FD401BB8424FF00300F5D907E700BF7E
:100A5000306A40F004003062306A40F001003062D9
:100A6000FFF708FD054641F2883700BF306A80076E
:100A700006D4FFF7FFFC401BB842F7D937E000BFB0
:100A8000B8F1000F7FF4D5AEF06920F08050F0612E
:100A9000CFE600BF306820F480303060306820F44A
:100AA00080203060FFF7E6FC054600BF3068800319
:100AB0007FF59DAEFFF7DEFC401B64284FF003007E
:100AC000F4D9CCE6306840F480203060306840F4DF
:100AD00080303060FFF7CEFC054600BF30688003F1
:100AE0003FF585AEFFF7C6FC401B6428F6D903200E
:100AF00002B0BDE8F08100BF206AB0F5803F05D1AB
:100B00007168A26821F40031114371607168626AF2
:100B100021F4741111430843706001203866FFF717
:100B2000A9FC0446306880013FF598AEFFF7A2FCAF
:100B3000001B02284FF00300F4D990E6411E00206C
:100B4000B0EB116F1CBF012070474EF21002CEF2C5
:100B5000000251604EF62351CEF20001F0230B70DB
:100B60000721906011607047B0B590F83C20012AD1
:100B700004BF0220B0BD01F108053CCDD1E900CE93
:100B800023F47C5322F470521A432EF4F0431A4398
:100B90002CF4E0431A4324F4C0431A432A43C9699E
:100BA00022F48042036811435964002180F83C100C
:100BB0000846B0BD10B590F83C20012A4FF0020263
:100BC00033D080F83D200268D2F804E0D2F808C0A3
:100BD0000C682EF07003234340F2FF74C4F200044B
:100BE000A24253600ADCB2F1804F13D040F20043BE
:100BF000C4F200039A420DD011E000BF42F6004358
:100C0000C4F201039A4205D040F60003C4F2000387
:100C10009A4204D149682CF0800319439160012164
:100C2000002280F83D1080F83C20104610BD0000E6
:100C3000002804BF0120704710B5044690F83D001D
:100C400028B9002084F83C00204600F067F8022014
:100C500084F83D00206840F2FF730268C4F200038C
:100C600042F6004C9842C4F2010C15DCB0F1804F02
:100C70001AD040F20041C4F20001884214D09842D8
:100C800018DCB0F1804F1DD040F20041C4F20001E9
:100C9000884217D01AE000BF604505D040F6000139
:100CA000C4F200018842EAD1A16822F070020A432E
:100CB0009842E6DD604505D040F60001C4F200012F
:100CC000884203D1216922F440720A43A36922F0C9
:100CD0008001D4F804E0E268194360450160C26213
:100CE000C0F828E002D16169CCF8301001214161DF
:100CF000002084F8461084F83E1084F83F1084F8F1
:100D0000401084F8411084F8421084F8431084F8AD
:100D1000441084F8451084F83D1010BD82B000687E
:100D2000B0F1804F14D042F60041C4F20101884274
:100D30001BD141F21800C4F20200016841F40061C5
:100D40000160006800F400600190019802B07047F3
:100D500041F21800C4F20200416841F00101416013
:100D6000406800F001000090009802B07047000059
:100D700090F83D1001291CBF01207047022180F826
:100D80003D10006840F2FF71C4F20001884209DCA6
:100D9000B0F1804F12D040F20041C4F2000188420D
:100DA0000CD012E042F60041C4F20101884205D0A5
:100DB00040F60001C4F20001884206D1816801F0CA
:100DC0000701062904BF00207047016841F00101B6
:100DD000016000207047000080B590F83C20012A97
:100DE0004FF0020200F0C28080F83D20D0F800C031
:100DF0004FF67772DCF8083023EA0202CCF80820BC
:100E00000B684F2B28DC1F2B44DD202B45D0302BCB
:100E100043D0402B40F0AC80D1F804E0C968DCF846
:100E20002030DCF8202022F00102CCF82020DCF871
:100E3000182022F0F00242EA011123F00A0242EAED
:100E40000E02CCF81810CCF82020DCF8081041F085
:100E5000470121F0300180E06F2B27DDB3F5005F03
:100E600048D0B3F5805F7AD0702B40F08180D1E913
:100E700001E3C968DCF8082043EA0E0322F47F424C
:100E800043EA01211143CCF80810DCF8081041F0C6
:100E9000770162E00BB1102B6AD1DCF8081021F069
:100EA0007001194341F0070157E000BF502B35D0C6
:100EB000602B5DD1D1F804E0C968DCF82030DCF8A3
:100EC000202022F01002CCF82020DCF8182022F498
:100ED000704242EA013123F0A00242EA0E12CCF83D
:100EE0001810CCF82020DCF8081041F0670121F040
:100EF000100132E0D1E901E3C968DCF8082043EAD7
:100F00000E0322F47F4243EA01211143CCF808107A
:100F1000DCF8081041F480411FE000BFD1F804E084
:100F2000C968DCF82030DCF8202022F00102CCF87F
:100F30002020DCF8182022F0F00242EA011123F010
:100F40000A0242EA0E02CCF81810CCF82020DCF895
:100F5000081041F0570121F02001CCF808100022C0
:100F6000012180F83D10002180F83C10104680BD22
:100F70000122F5E780B586B0014640F60000C4F2D4
:100F80000100096800F5105300229942049201D033
:100F900006B080BD41F21801C4F202010A6842F0B5
:100FA00004020A60096801F00401019101994FF4FB
:100FB0004071029102210391059102A9FFF746F9C0
:100FC00006B080BD2DE9F04390F83C30012B04BF02
:100FD0000220BDE8F0834FEAB202032A3CD8DFE8E2
:100FE00002F0034381BD00BF036842F600461D6A5C
:100FF0001A6AC4F2010622F001021A621A465C68FB
:1010000052F818CFB3428E68D1F800E025F00205FF
:1010100045EA06050CD1CE68D1E9057824F4407480
:1010200025F00C0526F004063C43354344EA080449
:101030002CF0730747EA0E075C609F614F680969EF
:101040005F631D629F6947F008079F619F6927F0F2
:1010500004079F61B2E000BF0121002280F83C201C
:101060000846BDE8F08300BF036842F600461D6AEB
:101070001A6AC4F2010622F010021A621A46D3F864
:1010800004C052F8184FB3428E68D1F800E025F042
:10109000200545EA061510D1CE68D1E9058725F06F
:1010A000C0096FF0400505EA06152CF4406647EAD2
:1010B000080745EA090546EA870C24F4E64444EAB1
:1010C0000E27C3F804C09F614F6809699F631D62C2
:1010D0009F6947F400679F619F6927F480679F615C
:1010E0006BE000BF036842F600461D6A1A6AC4F24C
:1010F000010622F480721A621A46D3F804C052F82C
:101100001CEFB3428E680C6825F4007545EA06258D
:1011100011D1CE68D1E9058725F44069360240F245
:10112000FF4526EA05052CF4405647EA080745EA3C
:10113000090546EA071C2EF073072743C3F804C0CD
:10114000DF614F680969DF631D62DF6947F00807E7
:10115000DF61DF6927F00407DF612FE0036842F6F3
:101160000047D3F820C01A6AC4F2010722F4805263
:101170001A621A465C6852F81C5FD1F800E08E686B
:10118000BB4204D14F6924F4804444EA87142CF410
:10119000005747EA063725F4E64646EA0E265C6025
:1011A000DE614E6809691E641F62DF6947F40067EB
:1011B000DF61DF6927F48067DF6109021368194383
:1011C00011600021002280F83C200846BDE8F08331
:1011D000002804BF0120704710B5044690F83D0078
:1011E00028B9002084F83C00204600F067F802206F
:1011F00084F83D00206840F2FF730268C4F20003E7
:1012000042F6004C9842C4F2010C15DCB0F1804F5C
:101210001AD040F20041C4F20001884214D0984232
:1012200018DCB0F1804F1DD040F20041C4F2000143
:10123000884217D01AE000BF604505D040F6000193
:10124000C4F200018842EAD1A16822F070020A4388
:101250009842E6DD604505D040F60001C4F2000189
:10126000884203D1216922F440720A43A36922F023
:101270008001D4F804E0E268194360450160C2626D
:10128000C0F828E002D16169CCF830100121416139
:10129000002084F8461084F83E1084F83F1084F84B
:1012A000401084F8411084F8421084F8431084F808
:1012B000441084F8451084F83D1010BD70470000BC
:1012C00041B1082910D0042914BF00F1410200F1F6
:1012D0003F020BE090F83E20012A1CBF012070471E
:1012E000022280F83E2013E000F140021278012A29
:1012F0001CBF012070470222082907D0042914BF0F
:1013000080F8412080F83F2002E000BF80F84020B4
:10131000006801F01F010122036A8A4023EA0201EA
:101320000162036A42F64441C4F201011A43A1F189
:101330004403984202620FD040F2FF71C4F20001F0
:10134000884213DCB0F1804F1CD040F20041C4F25F
:101350000001884216D01CE00A6842F400420A608C
:1013600040F2FF71C4F200018842EBDD42F6004119
:10137000C4F20101884205D040F60001C4F2000128
:10138000884206D1816801F00701062904BF0020C8
:101390007047016841F001010160002070470000C2
:1013A000FEE70000FEE70000FEE7000070470000D7
:1013B00070470000FFF764B870470000FEE70000C8
:1013C0002DE9F04381B040F2B009C2F20009D9F82A
:1013D0000800642140F2000741638163C2F2000704
:1013E000387940F60044397CC4F2010400F0080268
:1013F0002046FFF739F83879797C082505EA40025C
:101400002046FFF731F83879B97C05EA800220469A
:10141000FFF72AF83879F97C05EAC0022046FFF781
:1014200023F840F20018C2F20008D8F8006000214A
:10143000D9F80400716245F20001C4F2C37102F0F0
:10144000EFFF0546706A02F06FFF0146284602F082
:101450001DFFC0B9706A02F067FF0146284602F01E
:1014600015FF80B9706A02F05FFF0146284602F05E
:101470000DFF40B9706A02F057FF0146284602F09E
:10148000F7FE0028DED1D9F800004FF07E5102F0BF
:101490007FFE7A79397CC9F8000002F00802204604
:1014A000FEF7E2FF7879797C082505EA40022046BC
:1014B000FEF7DAFF7879B97C05EA80022046FEF76C
:1014C000D3FF7879F97C05EAC0022046FEF7CCFF0D
:1014D000D8F800600021D9F80400716245F20001DB
:1014E000C4F2C37102F09CFF054600BF706A02F0AF
:1014F0001BFF0146284602F0C9FEC0B9706A02F01F
:1015000013FF0146284602F0C1FE80B9706A02F05E
:101510000BFF0146284602F0B9FE40B9706A02F09E
:1015200003FF0146284602F0A3FE0028DED1D9F8C9
:1015300000004FF07E5102F02BFEBA79397CC9F8D9
:10154000000002F008022046FEF78EFFB879797C91
:10155000082505EA40022046FEF786FFB879B97CE7
:1015600005EA80022046FEF77FFFB879F97C05EA9C
:10157000C0022046FEF778FFD8F800600021D9F8B5
:101580000400716245F20001C4F2C37102F048FF29
:10159000054600BF706A02F0C7FE0146284602F009
:1015A00075FEC0B9706A02F0BFFE0146284602F01F
:1015B0006DFE80B9706A02F0B7FE0146284602F05F
:1015C00065FE40B9706A02F0AFFE0146284602F09F
:1015D0004FFE0028DED1D9F800004FF07E5102F016
:1015E000D7FDFA79397CC9F8000002F008022046DC
:1015F000FEF73AFFF879797C082505EA4002204693
:10160000FEF732FFF879B97C05EA80022046FEF742
:101610002BFFF879F97C05EAC0022046FEF724FF8B
:10162000D8F800500021D9F80400696245F20001A1
:10163000C4F2C37102F0F4FE044600BF686A02F00F
:1016400073FE0146204602F021FEC0B9686A02F02E
:101650006BFE0146204602F019FE80B9686A02F06E
:1016600063FE0146204602F011FE40B9686A02F0AE
:101670005BFE0146204602F0FBFD0028DED1D9F8D2
:1016800000004FF07E5102F083FDC9F8000001B068
:10169000BDE8F0832DE9F04381B040F2B009C2F219
:1016A0000009D9F80800642140F200074163816312
:1016B000C2F20007387840F60044397CC4F20104D5
:1016C00000F008022046FEF7CFFE3878797C082526
:1016D00005EA40022046FEF7C7FE3878B97C05EAE5
:1016E00080022046FEF7C0FE3878F97C05EAC00289
:1016F0002046FEF7B9FE40F20018C2F20008D8F802
:1017000000600021D9F80400716245F20001C4F2C2
:10171000C37102F085FE0546706A02F005FE0146BF
:10172000284602F0B3FDC0B9706A02F0FDFD014623
:10173000284602F0ABFD80B9706A02F0F5FD014663
:10174000284602F0A3FD40B9706A02F0EDFD0146A3
:10175000284602F08DFD0028DED1D9F800004FF0B8
:101760007E5102F015FD7A78397CC9F8000002F04C
:1017700008022046FEF778FE7878797C082505EA8D
:1017800040022046FEF770FE7878B97C05EA8002B8
:101790002046FEF769FE7878F97C05EAC00220460B
:1017A000FEF762FED8F800600021D9F804007162EB
:1017B00045F20001C4F2C37102F032FE054600BFDB
:1017C000706A02F0B1FD0146284602F05FFDC0B923
:1017D000706A02F0A9FD0146284602F057FD80B963
:1017E000706A02F0A1FD0146284602F04FFD40B9A3
:1017F000706A02F099FD0146284602F039FD002882
:10180000DED1D9F800004FF07E5102F0C1FCBA7869
:10181000397CC9F8000002F008022046FEF724FED9
:10182000B878797C082505EA40022046FEF71CFEC0
:10183000B878B97C05EA80022046FEF715FEB87834
:10184000F97C05EAC0022046FEF70EFED8F80060DB
:101850000021D9F80400716245F20001C4F2C3719D
:1018600002F0DEFD054600BF706A02F05DFD014634
:10187000284602F00BFDC0B9706A02F055FD014622
:10188000284602F003FD80B9706A02F04DFD014662
:10189000284602F0FBFC40B9706A02F045FD0146A3
:1018A000284602F0E5FC0028DED1D9F800004FF010
:1018B0007E5102F06DFCFA78397CC9F8000002F024
:1018C00008022046FEF7D0FDF878797C082505EA65
:1018D00040022046FEF7C8FDF878B97C05EA800290
:1018E0002046FEF7C1FDF878F97C05EAC0022046E3
:1018F000FEF7BAFDD8F800500021D9F8040069625B
:1019000045F20001C4F2C37102F08AFD044600BF33
:10191000686A02F009FD0146204602F0B7FCC0B932
:10192000686A02F001FD0146204602F0AFFC80B972
:10193000686A02F0F9FC0146204602F0A7FC40B9B3
:10194000686A02F0F1FC0146204602F091FC002892
:10195000DED1D9F800004FF07E5102F019FCC9F831
:10196000000001B0BDE8F0832DE9F04381B040F202
:10197000B009C2F20009D9F80800642140F200075A
:1019800041638163C2F20007387B40F60044397C32
:10199000C4F2010400F008022046FEF765FD387B22
:1019A000797C082505EA40022046FEF75DFD387B7C
:1019B000B97C05EA80022046FEF756FD387BF97CAB
:1019C00005EAC0022046FEF74FFD40F20018C2F2C1
:1019D0000008D8F800600021D9F80400716245F2CF
:1019E0000001C4F2C37102F01BFD0546706A02F0EB
:1019F0009BFC0146284602F049FCC0B9706A02F01F
:101A000093FC0146284602F041FC80B9706A02F05E
:101A10008BFC0146284602F039FC40B9706A02F09E
:101A200083FC0146284602F023FC0028DED1D9F8C9
:101A300000004FF07E5102F0ABFB7A7B397CC9F895
:101A4000000002F008022046FEF70EFD787B797C4C
:101A5000082505EA40022046FEF706FD787BB97CA2
:101A600005EA80022046FEF7FFFC787BF97C05EA58
:101A7000C0022046FEF7F8FCD8F800600021D9F833
:101A80000400716245F20001C4F2C37102F0C8FCA7
:101A9000054600BF706A02F047FC0146284602F086
:101AA000F5FBC0B9706A02F03FFC0146284602F01F
:101AB000EDFB80B9706A02F037FC0146284602F05F
:101AC000E5FB40B9706A02F02FFC0146284602F09F
:101AD000CFFB0028DED1D9F800004FF07E5102F094
:101AE00057FBBA7B397CC9F8000002F00802204697
:101AF000FEF7BAFCB87B797C082505EA400220464F
:101B0000FEF7B2FCB87BB97C05EA80022046FEF7FE
:101B1000ABFCB87BF97C05EAC0022046FEF7A4FCCA
:101B2000D8F800600021D9F80400716245F2000184
:101B3000C4F2C37102F074FC054600BF706A02F083
:101B4000F3FB0146284602F0A1FBC0B9706A02F01F
:101B5000EBFB0146284602F099FB80B9706A02F05F
:101B6000E3FB0146284602F091FB40B9706A02F09F
:101B7000DBFB0146284602F07BFB0028DED1D9F8CA
:101B800000004FF07E5102F003FBFA7B397CC9F86C
:101B9000000002F008022046FEF766FCF87B797C24
:101BA000082505EA40022046FEF75EFCF87BB97C7A
:101BB00005EA80022046FEF757FCF87BF97C05EA2F
:101BC000C0022046FEF750FCD8F800500021D9F89A
:101BD0000400696245F20001C4F2C37102F020FC06
:101BE000044600BF686A02F09FFB0146204602F0EF
:101BF0004DFBC0B9686A02F097FB0146204602F02F
:101C000045FB80B9686A02F08FFB0146204602F06E
:101C10003DFB40B9686A02F087FB0146204602F0AE
:101C200027FB0028DED1D9F800004FF07E5102F0EA
:101C3000AFFAC9F8000001B0BDE8F0832DE9F04328
:101C400081B040F2B009C2F20009D9F8080064215D
:101C500040F2000741638163C2F20007387A40F620
:101C60000044397CC4F2010400F008022046FEF76B
:101C7000FBFB387A797C082505EA40022046FEF70E
:101C8000F3FB387AB97C05EA80022046FEF7ECFBCC
:101C9000387AF97C05EAC0022046FEF7E5FB40F2FF
:101CA0000018C2F20008D8F800600021D9F804003A
:101CB000716245F20001C4F2C37102F0B1FB054646
:101CC000706A02F031FB0146284602F0DFFAC0B923
:101CD000706A02F029FB0146284602F0D7FA80B963
:101CE000706A02F021FB0146284602F0CFFA40B9A3
:101CF000706A02F019FB0146284602F0B9FA002882
:101D0000DED1D9F800004FF07E5102F041FA7A7A24
:101D1000397CC9F8000002F008022046FEF7A4FB57
:101D2000787A797C082505EA40022046FEF79CFB7C
:101D3000787AB97C05EA80022046FEF795FB787A2E
:101D4000F97C05EAC0022046FEF78EFBD8F8006059
:101D50000021D9F80400716245F20001C4F2C37198
:101D600002F05EFB054600BF706A02F0DDFA014634
:101D7000284602F08BFAC0B9706A02F0D5FA014623
:101D8000284602F083FA80B9706A02F0CDFA014663
:101D9000284602F07BFA40B9706A02F0C5FA0146A3
:101DA000284602F065FA0028DED1D9F800004FF08D
:101DB0007E5102F0EDF9BA7A397CC9F8000002F0E0
:101DC00008022046FEF750FBB87A797C082505EA20
:101DD00040022046FEF748FBB87AB97C05EA80024B
:101DE0002046FEF741FBB87AF97C05EAC00220469E
:101DF000FEF73AFBD8F800600021D9F804007162C0
:101E000045F20001C4F2C37102F00AFB054600BFAF
:101E1000706A02F089FA0146284602F037FAC0B922
:101E2000706A02F081FA0146284602F02FFA80B962
:101E3000706A02F079FA0146284602F027FA40B9A2
:101E4000706A02F071FA0146284602F011FA002881
:101E5000DED1D9F800004FF07E5102F099F9FA7AFC
:101E6000397CC9F8000002F008022046FEF7FCFAAF
:101E7000F87A797C082505EA40022046FEF7F4FA54
:101E8000F87AB97C05EA80022046FEF7EDFAF87A86
:101E9000F97C05EAC0022046FEF7E6FAD8F80050C1
:101EA0000021D9F80400696245F20001C4F2C3714F
:101EB00002F0B6FA044600BF686A02F035FA01463D
:101EC000204602F0E3F9C0B9686A02F02DFA014633
:101ED000204602F0DBF980B9686A02F025FA014673
:101EE000204602F0D3F940B9686A02F01DFA0146B3
:101EF000204602F0BDF90028DED1D9F800004FF0ED
:101F00007E5102F045F9C9F8000001B0BDE8F08348
:101F100098B0FEF7C3FA4FF48030002401250190F9
:101F20006846CDE90844CDE90644CDE90444CDE94D
:101F300002440095FEF728FC20B1EFF3108072B642
:101F4000FEE700BF0F20CDE90A050AA80021CDE970
:101F50000C440E94FEF738FB20B1EFF3108072B6FC
:101F6000FEE700BF002641F218000396C4F202000B
:101F7000016840F6004841F0200101600168C4F2A8
:101F8000010801F020010A910A990168002241F03C
:101F90000401016001683B2701F004010A910A99DC
:101FA000016841F00801016000683B2100F0080071
:101FB0000A900A984046FEF757FA38206D46CDE958
:101FC00000060124A8F5806029460294FEF73EF938
:101FD0000220039040462946CDE900740296FEF7A0
:101FE00035F940F2B00AC2F2000A08F50051504635
:101FF00040F8081F4F2163221796CDE91566CDE9F9
:1020000012660696C0E90116C0E90326C0E9056616
:10201000FEF70EFE20B1EFF3108072B6FEE700BFB0
:102020004FF480500AF10806149014A93046FEF7C8
:10203000D3FE28B1EFF3108072B600BFFEE700BFF9
:102040003046FFF7C5F828B1EFF3108072B600BF35
:10205000FEE700BF12A93046FEF7ACFD20B1EFF35A
:10206000108072B6FEE700BF60200A900020CDE924
:102070000B00CDE90D00CDE90F000AA93046002282
:10208000FEF7A0FF20B1EFF3108072B6FEE700BFAD
:102090000AA930460422FEF795FF28B1EFF310801D
:1020A00072B600BFFEE700BF4FF400500025059058
:1020B000694630460495CDE90255CDE900550795AE
:1020C000FEF752FD20B1EFF3108072B6FEE700BFBD
:1020D0003046FEF74FFF40F20010C2F200004FF012
:1020E00080414FF6FF730395CDE90155CDE90A55BF
:1020F0004F2280E82600C0E903358561FEF798FD90
:1021000020B1EFF3108072B6FEE700BF4FF48050AD
:10211000009040F20010C2F200006946FEF75CFE3B
:1021200020B1EFF3108072B6FEE700BF40F200105E
:10213000C2F200000AA9FEF73DFD18B1EFF31080CE
:1021400072B6FEE7304600210027FFF7B9F83046A7
:102150000421FFF7B5F83046FEF70AFE40F2001002
:10216000C2F20000FEF704FE40F2000BC2F2000BC8
:10217000DBF8180001F0E0FF0023C4F2690300223D
:1021800001F0DCFE0B4600210246C4F24E010020A5
:1021900001F07AFD01F046FD0025C4F2483508241F
:1021A000CAF8040014E000BF00250646DBF814005E
:1021B000C4F24835294602F033F90146304602F0B0
:1021C00049F84FF0000718B1CAF80070CBF81C703E
:1021D000DBF81C000828FBD8DFE810F00A00240018
:1021E00028002C00A200A600AA00AE00240100BF17
:1021F0009BF8101040460022FEF736F99BF81110AC
:1022000040460022FEF730F99BF8121040460022AB
:10221000FEF72AF99BF8131040460022FEF724F936
:10222000D6E700BFFFF736FAFEE000BFFFF706FD76
:10223000FAE000BFDAF8080064214FF000094163BA
:1022400081630DE0DAF800004FF07C5101F0A0FF4F
:1022500009F10109B9F1080FCAF8000000F0F48093
:102260000BEB090595F820009BF8101000F0080210
:102270004046FEF7F9F895F820009BF8111004EAA3
:1022800040024046FEF7F0F895F820009BF8121047
:1022900004EA80024046FEF7E7F895F820009BF834
:1022A000131004EAC0024046FEF7DEF840F20010C8
:1022B000C2F200000568DAF804004FF07C516F624A
:1022C00002F0AEF845F20001C4F2C37102F0A8F8C2
:1022D000064600BF686A02F027F80146304601F062
:1022E000D5FF0028AED1686A02F01EF801463046DC
:1022F00001F0CCFF0028A5D1686A02F015F801466C
:10230000304601F0C3FF00289CD1686A02F00CF847
:102310000146304601F0ACFF0028DBD192E700BF58
:1023200000F08EFE80E000BFFFF74AF87CE000BFBF
:10233000FFF71AFB78E000BFDAF808004FF0000959
:1023400064210025416381630CE000BFDAF80000DE
:102350004FF07C5101F01CFF0135082DCAF8000038
:102360003FF422AF0BEB050696F828009BF81010FF
:1023700000F008024046FEF777F896F828009BF830
:10238000111004EA40024046FEF76EF896F8280065
:102390009BF8121004EA80024046FEF765F896F8B2
:1023A00028009BF8131004EAC0024046FEF75CF8D0
:1023B00040F20010C2F200000768DAF804004FF0A3
:1023C0007C51C7F8249002F02BF845F20001C4F2CA
:1023D000C37102F025F80646786A01F0A5FF0146B0
:1023E000304601F053FF0028B0D1786A01F09CFF1D
:1023F0000146304601F04AFF0028A7D1786A01F073
:1024000093FF0146304601F041FF00289ED1786AD3
:1024100001F08AFF0146304601F02AFF0028DBD197
:1024200094E700BF00F018F8DBF81400DAF8006059
:10243000294601F0F5FF0146304601F00BFF002868
:102440007FF4C2AEC4E600BF0646DBF814000025E8
:10245000C4F24835ECE700002DE9F04F81B040F2BE
:10246000B005C2F20005A868002140F2000940F65C
:10247000004781636421C2F200094FF0000BC4F2EF
:10248000010741630CE000BF28684FF07E5101F066
:102490007FFE0BF1010BBBF1040F286000F0CC852F
:1024A00009EB0B06307999F8101000F00802384655
:1024B000FDF7DAFF307999F81110082404EA400298
:1024C0003846FDF7D1FF307999F8121004EA8002FE
:1024D0003846FDF7C9FF307999F8131004EAC002B5
:1024E0003846FDF7C1FF40F20011C2F20001096851
:1024F0006868D5F808A001F124084FF076512C4601
:1025000001F08EFF45F20001C4F2C37101F088FFB3
:1025100099F830105FEACB72064640F0C58200257C
:10252000CAF83810C8F80050D8F8000001F0FCFED6
:102530000146304601F0AAFED8B9D8F8000001F0F3
:10254000F3FE0146304601F0A1FE90B9D8F8000034
:1025500001F0EAFE0146304601F098FE48B9D8F88D
:10256000000001F0E1FE0146304601F081FE002846
:10257000DAD199F83100CAF83800C8F8005000BF25
:10258000D8F8000001F0D0FE0146304601F07EFE92
:10259000D8B9D8F8000001F0C7FE0146304601F076
:1025A00075FE90B9D8F8000001F0BEFE0146304635
:1025B00001F06CFE48B9D8F8000001F0B5FE014604
:1025C000304601F055FE0028DAD199F83200CAF8F9
:1025D0003800C8F8005000BFD8F8000001F0A4FE91
:1025E0000146304601F052FED8B9D8F8000001F09B
:1025F0009BFE0146304601F049FE90B9D8F8000034
:1026000001F092FE0146304601F040FE48B9D8F88C
:10261000000001F089FE0146304601F029FE002845
:10262000DAD199F83300CAF83800C8F8005000BF72
:10263000D8F8000001F078FE0146304601F026FE91
:10264000D8B9D8F8000001F06FFE0146304601F01D
:102650001DFE90B9D8F8000001F066FE0146304634
:1026600001F014FE48B9D8F8000001F05DFE014603
:10267000304601F0FDFD0028DAD199F83400CAF89F
:102680003800C8F8005000BFD8F8000001F04CFE38
:102690000146304601F0FAFDD8B9D8F8000001F043
:1026A00043FE0146304601F0F1FD90B9D8F8000034
:1026B00001F03AFE0146304601F0E8FD48B9D8F88D
:1026C000000001F031FE0146304601F0D1FD002846
:1026D000DAD199F83500CAF83800C8F8005000BFC0
:1026E000D8F8000001F020FE0146304601F0CEFD92
:1026F000D8B9D8F8000001F017FE0146304601F0C5
:10270000C5FD90B9D8F8000001F00EFE0146304634
:1027100001F0BCFD48B9D8F8000001F005FE014603
:10272000304601F0A5FD0028DAD199F83600CAF844
:102730003800C8F8005000BFD8F8000001F0F4FDE0
:102740000146304601F0A2FDD8B9D8F8000001F0EA
:10275000EBFD0146304601F099FD90B9D8F8000034
:1027600001F0E2FD0146304601F090FD48B9D8F88D
:10277000000001F0D9FD0146304601F079FD002846
:10278000DAD199F83700CAF83800C8F8005000BF0D
:10279000D8F8000001F0C8FD0146304601F076FD92
:1027A000D8B9D8F8000001F0BFFD0146304601F06D
:1027B0006DFD90B9D8F8000001F0B6FD0146304635
:1027C00001F064FD48B9D8F8000001F0ADFD014604
:1027D000304601F04DFD0028DAD199F83800CAF8EA
:1027E0003400C8F8005000BFD8F8000001F09CFD8C
:1027F0000146304601F04AFDD8B9D8F8000001F092
:1028000093FD0146304601F041FD90B9D8F8000033
:1028100001F08AFD0146304601F038FD48B9D8F88C
:10282000000001F081FD0146304601F021FD002845
:10283000DAD199F83900CAF83400C8F8005000BF5E
:10284000D8F8000001F070FD0146304601F01EFD91
:10285000D8B9D8F8000001F067FD0146304601F014
:1028600015FD90B9D8F8000001F05EFD0146304634
:1028700001F00CFD48B9D8F8000001F055FD014603
:10288000304601F0F5FC0028DAD199F83A00CAF890
:102890003400C8F8005000BFD8F8000001F044FD33
:1028A0000146304601F0F2FCD8B9D8F8000001F03A
:1028B0003BFD0146304601F0E9FC90B9D8F8000034
:1028C00001F032FD0146304601F0E0FC48B9D8F88D
:1028D000000001F029FD0146304601F0C9FC002846
:1028E000DAD199F83B00CAF83400C8F8005000BFAC
:1028F000D8F8000001F018FD0146304601F0C6FC92
:10290000D8B9D8F8000001F00FFD0146304601F0BB
:10291000BDFC90B9D8F8000001F006FD0146304634
:1029200001F0B4FC48B9D8F8000001F0FDFC014604
:10293000304601F09DFC0028DAD199F83C00CAF835
:102940003400C8F8005000BFD8F8000001F0ECFCDB
:102950000146304601F09AFCD8B9D8F8000001F0E1
:10296000E3FC0146304601F091FC90B9D8F8000034
:1029700001F0DAFC0146304601F088FC48B9D8F88D
:10298000000001F0D1FC0146304601F071FC002846
:10299000DAD199F83D00CAF83400C8F8005000BFF9
:1029A000D8F8000001F0C0FC0146304601F06EFC92
:1029B000D8B9D8F8000001F0B7FC0146304601F064
:1029C00065FC90B9D8F8000001F0AEFC0146304635
:1029D00001F05CFC48B9D8F8000001F0A5FC014604
:1029E000304601F045FC0028DAD199F83E00CAF8DB
:1029F0003400C8F8005000BFD8F8000001F094FC83
:102A00000146304601F042FCD8B9D8F8000001F088
:102A10008BFC0146304601F039FC90B9D8F8000033
:102A200001F082FC0146304601F030FC48B9D8F88C
:102A3000000001F079FC0146304601F019FC002845
:102A4000DAD199F83F00CAF83400C8F8005025469A
:102A5000D8F8000001F068FC0146304601F016FC91
:102A600000287FF411ADD8F8000001F05DFC0146AC
:102A7000304601F00BFC00287FF406ADD8F80000CA
:102A800001F052FC0146304601F000FC00287FF4C2
:102A9000FBACD8F8000001F047FC0146304601F0DD
:102AA000E7FB0028D4D1EFE40025CAF83410C8F8B9
:102AB000005000BFD8F8000001F036FC0146304657
:102AC00001F0E4FBD8B9D8F8000001F02DFC014674
:102AD000304601F0DBFB90B9D8F8000001F024FC8F
:102AE0000146304601F0D2FB48B9D8F8000001F0A9
:102AF0001BFC0146304601F0BBFB0028DAD199F8F7
:102B00003100CAF83400C8F8005000BFD8F80000FF
:102B100001F00AFC0146304601F0B8FBD8B9D8F8FC
:102B2000000001F001FC0146304601F0AFFB90B916
:102B3000D8F8000001F0F8FB0146304601F0A6FB92
:102B400048B9D8F8000001F0EFFB0146304601F02B
:102B50008FFB0028DAD199F83200CAF83400C8F89F
:102B6000005000BFD8F8000001F0DEFB01463046FF
:102B700001F08CFBD8B9D8F8000001F0D5FB014674
:102B8000304601F083FB90B9D8F8000001F0CCFB8F
:102B90000146304601F07AFB48B9D8F8000001F050
:102BA000C3FB0146304601F063FB0028DAD199F8F7
:102BB0003300CAF83400C8F8005000BFD8F800004D
:102BC00001F0B2FB0146304601F060FBD8B9D8F8FD
:102BD000000001F0A9FB0146304601F057FB90B917
:102BE000D8F8000001F0A0FB0146304601F04EFB92
:102BF00048B9D8F8000001F097FB0146304601F0D3
:102C000037FB0028DAD199F83400CAF83400C8F844
:102C1000005000BFD8F8000001F086FB01463046A6
:102C200001F034FBD8B9D8F8000001F07DFB014673
:102C3000304601F02BFB90B9D8F8000001F074FB8E
:102C40000146304601F022FB48B9D8F8000001F0F7
:102C50006BFB0146304601F00BFB0028DAD199F8F6
:102C60003500CAF83400C8F8005000BFD8F800009A
:102C700001F05AFB0146304601F008FBD8B9D8F8FC
:102C8000000001F051FB0146304601F0FFFA90B917
:102C9000D8F8000001F048FB0146304601F0F6FA92
:102CA00048B9D8F8000001F03FFB0146304601F07A
:102CB000DFFA0028DAD199F83600CAF83400C8F8EB
:102CC000005000BFD8F8000001F02EFB014630464E
:102CD00001F0DCFAD8B9D8F8000001F025FB014674
:102CE000304601F0D3FA90B9D8F8000001F01CFB8F
:102CF0000146304601F0CAFA48B9D8F8000001F0A0
:102D000013FB0146304601F0B3FA0028DAD199F8F6
:102D10003700CAF83400C8F8005000BFD8F80000E7
:102D200001F002FB0146304601F0B0FAD8B9D8F8FC
:102D3000000001F0F9FA0146304601F0A7FA90B917
:102D4000D8F8000001F0F0FA0146304601F09EFA92
:102D500048B9D8F8000001F0E7FA0146304601F022
:102D600087FA0028DAD199F83800CAF83800C8F88C
:102D7000005000BFD8F8000001F0D6FA01463046F6
:102D800001F084FAD8B9D8F8000001F0CDFA014674
:102D9000304601F07BFA90B9D8F8000001F0C4FA8F
:102DA0000146304601F072FA48B9D8F8000001F047
:102DB000BBFA0146304601F05BFA0028DAD199F8F7
:102DC0003900CAF83800C8F8005000BFD8F8000031
:102DD00001F0AAFA0146304601F058FAD8B9D8F8FD
:102DE000000001F0A1FA0146304601F04FFA90B917
:102DF000D8F8000001F098FA0146304601F046FA92
:102E000048B9D8F8000001F08FFA0146304601F0C9
:102E10002FFA0028DAD199F83A00CAF83800C8F831
:102E2000005000BFD8F8000001F07EFA014630469D
:102E300001F02CFAD8B9D8F8000001F075FA014673
:102E4000304601F023FA90B9D8F8000001F06CFA8E
:102E50000146304601F01AFA48B9D8F8000001F0EE
:102E600063FA0146304601F003FA0028DAD199F8F6
:102E70003B00CAF83800C8F8005000BFD8F800007E
:102E800001F052FA0146304601F000FAD8B9D8F8FC
:102E9000000001F049FA0146304601F0F7F990B917
:102EA000D8F8000001F040FA0146304601F0EEF992
:102EB00048B9D8F8000001F037FA0146304601F071
:102EC000D7F90028DAD199F83C00CAF83800C8F8D8
:102ED000005000BFD8F8000001F026FA0146304645
:102EE00001F0D4F9D8B9D8F8000001F01DFA014674
:102EF000304601F0CBF990B9D8F8000001F014FA8F
:102F00000146304601F0C2F948B9D8F8000001F096
:102F10000BFA0146304601F0ABF90028DAD199F8F6
:102F20003D00CAF83800C8F8005000BFD8F80000CB
:102F300001F0FAF90146304601F0A8F9D8B9D8F8FD
:102F4000000001F0F1F90146304601F09FF990B917
:102F5000D8F8000001F0E8F90146304601F096F992
:102F600048B9D8F8000001F0DFF90146304601F019
:102F70007FF90028DAD199F83E00CAF83800C8F87D
:102F8000005000BFD8F8000001F0CEF901463046ED
:102F900001F07CF9D8B9D8F8000001F0C5F9014674
:102FA000304601F073F990B9D8F8000001F0BCF98F
:102FB0000146304601F06AF948B9D8F8000001F03E
:102FC000B3F90146304601F053F90028DAD199F8F7
:102FD0003F00CAF83800C8F800502546D8F800006D
:102FE00001F0A2F90146304601F050F900287FF4C3
:102FF0004BAAD8F8000001F097F90146304601F0DD
:1030000045F900287FF440AAD8F8000001F08CF9B7
:103010000146304601F03AF900287FF435AAD8F885
:10302000000001F081F90146304601F021F9002845
:10303000D4D1FFF729BA00BF01B0BDE8F08F00007E
:103040002DE9F04F81B040F2B009C2F2000940F61C
:103050000044D9F8080040F20007C4F2010400253A
:103060006421C2F200074FF0000B856341630DE05D
:10307000D9F800004FF07E5101F08AF80BF1010BF6
:10308000BBF1040FC9F8000000F0C88517F80B0069
:10309000397C00F008022046FDF7E6F917F80B002E
:1030A000797C082606EA40022046FDF7DDF917F88C
:1030B0000B00B97C06EA80022046FDF7D5F917F827
:1030C0000B00F97C06EAC0022046FDF7CDF940F27C
:1030D0000011C2F200010968D9F80400D9F808A06B
:1030E00001F124084FF0765101F09AF945F2000100
:1030F000C4F2C37101F094F997F830105FEACB7213
:10310000064640F0C582CAF83810C8F8005000BF23
:10311000D8F8000001F008F90146304601F0B6F891
:10312000D8B9D8F8000001F0FFF80146304601F0A8
:10313000ADF890B9D8F8000001F0F6F80146304635
:1031400001F0A4F848B9D8F8000001F0EDF8014604
:10315000304601F08DF80028DAD197F83100CAF82E
:103160003800C8F8005000BFD8F8000001F0DCF8C3
:103170000146304601F08AF8D8B9D8F8000001F0CD
:10318000D3F80146304601F081F890B9D8F8000034
:1031900001F0CAF80146304601F078F848B9D8F88D
:1031A000000001F0C1F80146304601F061F8002846
:1031B000DAD197F83200CAF83800C8F8005000BFDA
:1031C000D8F8000001F0B0F80146304601F05EF892
:1031D000D8B9D8F8000001F0A7F80146304601F050
:1031E00055F890B9D8F8000001F09EF80146304635
:1031F00001F04CF848B9D8F8000001F095F8014604
:10320000304601F035F80028DAD197F83300CAF8D3
:103210003800C8F8005000BFD8F8000001F084F86A
:103220000146304601F032F8D8B9D8F8000001F074
:103230007BF80146304601F029F890B9D8F8000033
:1032400001F072F80146304601F020F848B9D8F88C
:10325000000001F069F80146304601F009F8002845
:10326000DAD197F83400CAF83800C8F8005000BF27
:10327000D8F8000001F058F80146304601F006F891
:10328000D8B9D8F8000001F04FF80146304600F0F8
:10329000FDFF90B9D8F8000001F046F8014630462D
:1032A00000F0F4FF48B9D8F8000001F03DF80146FD
:1032B000304600F0DDFF0028DAD197F83500CAF873
:1032C0003800C8F8005000BFD8F8000001F02CF812
:1032D0000146304600F0DAFFD8B9D8F8000001F016
:1032E00023F80146304600F0D1FF90B9D8F800002D
:1032F00001F01AF80146304600F0C8FF48B9D8F886
:10330000000001F011F80146304600F0B1FF00283E
:10331000DAD197F83600CAF83800C8F8005000BF74
:10332000D8F8000001F000F80146304600F0AEFF8A
:10333000D8B9D8F8000000F0F7FF0146304600F099
:10334000A5FF90B9D8F8000000F0EEFF0146304626
:1033500000F09CFF48B9D8F8000000F0E5FF0146F6
:10336000304600F085FF0028DAD197F83700CAF818
:103370003800C8F8005000BFD8F8000000F0D4FFB3
:103380000146304600F082FFD8B9D8F8000000F0BE
:10339000CBFF0146304600F079FF90B9D8F8000025
:1033A00000F0C2FF0146304600F070FF48B9D8F87F
:1033B000000000F0B9FF0146304600F059FF002838
:1033C000DAD197F83800CAF83400C8F8005000BFC6
:1033D000D8F8000000F0A8FF0146304600F056FF84
:1033E000D8B9D8F8000000F09FFF0146304600F041
:1033F0004DFF90B9D8F8000000F096FF0146304626
:1034000000F044FF48B9D8F8000000F08DFF0146F5
:10341000304600F02DFF0028DAD197F83900CAF8BD
:103420003400C8F8005000BFD8F8000000F07CFF5E
:103430000146304600F02AFFD8B9D8F8000000F065
:1034400073FF0146304600F021FF90B9D8F8000024
:1034500000F06AFF0146304600F018FF48B9D8F87E
:10346000000000F061FF0146304600F001FF002837
:10347000DAD197F83A00CAF83400C8F8005000BF13
:10348000D8F8000000F050FF0146304600F0FEFE84
:10349000D8B9D8F8000000F047FF0146304600F0E8
:1034A000F5FE90B9D8F8000000F03EFF0146304626
:1034B00000F0ECFE48B9D8F8000000F035FF0146F6
:1034C000304600F0D5FE0028DAD197F83B00CAF864
:1034D0003400C8F8005000BFD8F8000000F024FF06
:1034E0000146304600F0D2FED8B9D8F8000000F00E
:1034F0001BFF0146304600F0C9FE90B9D8F8000025
:1035000000F012FF0146304600F0C0FE48B9D8F87E
:10351000000000F009FF0146304600F0A9FE002837
:10352000DAD197F83C00CAF83400C8F8005000BF60
:10353000D8F8000000F0F8FE0146304600F0A6FE84
:10354000D8B9D8F8000000F0EFFE0146304600F090
:103550009DFE90B9D8F8000000F0E6FE0146304626
:1035600000F094FE48B9D8F8000000F0DDFE0146F6
:10357000304600F07DFE0028DAD197F83D00CAF809
:103580003400C8F8005000BFD8F8000000F0CCFEAE
:103590000146304600F07AFED8B9D8F8000000F0B5
:1035A000C3FE0146304600F071FE90B9D8F8000025
:1035B00000F0BAFE0146304600F068FE48B9D8F87F
:1035C000000000F0B1FE0146304600F051FE002838
:1035D000DAD197F83E00CAF83400C8F8005000BFAE
:1035E000D8F8000000F0A0FE0146304600F04EFE84
:1035F000D8B9D8F8000000F097FE0146304600F038
:1036000045FE90B9D8F8000000F08EFE0146304625
:1036100000F03CFE48B9D8F8000000F085FE0146F5
:10362000304600F025FE0028DAD197F83F00CAF8AE
:103630003400C8F8005000BFD8F8000000F074FE55
:103640000146304600F022FE00287FF411ADD8F884
:10365000000000F069FE0146304600F017FE002829
:103660007FF406ADD8F8000000F05EFE014630465B
:1036700000F00CFE00287FF4FBACD8F8000000F04E
:1036800053FE0146304600F0F3FD0028D4D1EFE4AC
:10369000CAF83410C8F80050D8F8000000F044FE12
:1036A0000146304600F0F2FDD8B9D8F8000000F02D
:1036B0003BFE0146304600F0E9FD90B9D8F8000025
:1036C00000F032FE0146304600F0E0FD48B9D8F87F
:1036D000000000F029FE0146304600F0C9FD002838
:1036E000DAD197F83100CAF83400C8F8005000BFAA
:1036F000D8F8000000F018FE0146304600F0C6FD84
:10370000D8B9D8F8000000F00FFE0146304600F0AE
:10371000BDFD90B9D8F8000000F006FE0146304625
:1037200000F0B4FD48B9D8F8000000F0FDFD0146F6
:10373000304600F09DFD0028DAD197F83200CAF833
:103740003400C8F8005000BFD8F8000000F0ECFDCD
:103750000146304600F09AFDD8B9D8F8000000F0D4
:10376000E3FD0146304600F091FD90B9D8F8000025
:1037700000F0DAFD0146304600F088FD48B9D8F87F
:10378000000000F0D1FD0146304600F071FD002838
:10379000DAD197F83300CAF83400C8F8005000BFF7
:1037A000D8F8000000F0C0FD0146304600F06EFD84
:1037B000D8B9D8F8000000F0B7FD0146304600F057
:1037C00065FD90B9D8F8000000F0AEFD0146304626
:1037D00000F05CFD48B9D8F8000000F0A5FD0146F6
:1037E000304600F045FD0028DAD197F83400CAF8D9
:1037F0003400C8F8005000BFD8F8000000F094FD75
:103800000146304600F042FDD8B9D8F8000000F07B
:103810008BFD0146304600F039FD90B9D8F8000024
:1038200000F082FD0146304600F030FD48B9D8F87E
:10383000000000F079FD0146304600F019FD002837
:10384000DAD197F83500CAF83400C8F8005000BF44
:10385000D8F8000000F068FD0146304600F016FD83
:10386000D8B9D8F8000000F05FFD0146304600F0FE
:103870000DFD90B9D8F8000000F056FD0146304625
:1038800000F004FD48B9D8F8000000F04DFD0146F5
:10389000304600F0EDFC0028DAD197F83600CAF87F
:1038A0003400C8F8005000BFD8F8000000F03CFD1C
:1038B0000146304600F0EAFCD8B9D8F8000000F024
:1038C00033FD0146304600F0E1FC90B9D8F8000025
:1038D00000F02AFD0146304600F0D8FC48B9D8F87F
:1038E000000000F021FD0146304600F0C1FC002838
:1038F000DAD197F83700CAF83400C8F8005000BF92
:10390000D8F8000000F010FD0146304600F0BEFC83
:10391000D8B9D8F8000000F007FD0146304600F0A5
:10392000B5FC90B9D8F8000000F0FEFC0146304626
:1039300000F0ACFC48B9D8F8000000F0F5FC0146F6
:10394000304600F095FC0028DAD197F83800CAF824
:103950003800C8F8005000BFD8F8000000F0E4FCC0
:103960000146304600F092FCD8B9D8F8000000F0CB
:10397000DBFC0146304600F089FC90B9D8F8000025
:1039800000F0D2FC0146304600F080FC48B9D8F87F
:10399000000000F0C9FC0146304600F069FC002838
:1039A000DAD197F83900CAF83800C8F8005000BFDB
:1039B000D8F8000000F0B8FC0146304600F066FC84
:1039C000D8B9D8F8000000F0AFFC0146304600F04E
:1039D0005DFC90B9D8F8000000F0A6FC0146304626
:1039E00000F054FC48B9D8F8000000F09DFC0146F6
:1039F000304600F03DFC0028DAD197F83A00CAF8CA
:103A00003800C8F8005000BFD8F8000000F08CFC67
:103A10000146304600F03AFCD8B9D8F8000000F072
:103A200083FC0146304600F031FC90B9D8F8000024
:103A300000F07AFC0146304600F028FC48B9D8F87E
:103A4000000000F071FC0146304600F011FC002837
:103A5000DAD197F83B00CAF83800C8F8005000BF28
:103A6000D8F8000000F060FC0146304600F00EFC83
:103A7000D8B9D8F8000000F057FC0146304600F0F5
:103A800005FC90B9D8F8000000F04EFC0146304625
:103A900000F0FCFB48B9D8F8000000F045FC0146F6
:103AA000304600F0E5FB0028DAD197F83C00CAF870
:103AB0003800C8F8005000BFD8F8000000F034FC0F
:103AC0000146304600F0E2FBD8B9D8F8000000F01B
:103AD0002BFC0146304600F0D9FB90B9D8F8000025
:103AE00000F022FC0146304600F0D0FB48B9D8F87F
:103AF000000000F019FC0146304600F0B9FB002838
:103B0000DAD197F83D00CAF83800C8F8005000BF75
:103B1000D8F8000000F008FC0146304600F0B6FB83
:103B2000D8B9D8F8000000F0FFFB0146304600F09D
:103B3000ADFB90B9D8F8000000F0F6FB0146304626
:103B400000F0A4FB48B9D8F8000000F0EDFB0146F6
:103B5000304600F08DFB0028DAD197F83E00CAF815
:103B60003800C8F8005000BFD8F8000000F0DCFBB7
:103B70000146304600F08AFBD8B9D8F8000000F0C2
:103B8000D3FB0146304600F081FB90B9D8F8000025
:103B900000F0CAFB0146304600F078FB48B9D8F87F
:103BA000000000F0C1FB0146304600F061FB002838
:103BB000DAD197F83F00CAF83800C8F8005000BFC3
:103BC000D8F8000000F0B0FB0146304600F05EFB84
:103BD00000287FF44DAAD8F8000000F0A5FB0146AC
:103BE000304600F053FB00287FF442AAD8F80000CA
:103BF00000F09AFB0146304600F048FB00287FF4B5
:103C000037AAD8F8000000F08FFB0146304600F0DC
:103C10002FFB0028D4D1FFF72BBA00BF01B0BDE8BD
:103C2000F08F000021F0004201F00043A2F1605249
:103C3000B2F5801F28BFD2F17F6C0BD95FEA001C60
:103C400043EAC20242EB507018BF704728BF20F011
:103C500001007047B2F5801FBCBF184670474FEA9D
:103C6000410C1CF5001F02D2084600F0A0BC70B544
:103C700000F00EFA00000089FFF7F6BF4FF0004099
:103C8000A0F58000704700002DE9C04130B4DFF896
:103C9000A4C23CEA111418BF3CEA131400F0ED80F2
:103CA0001CEA111481EA030544EAD57418BF1CEA22
:103CB000131500F0C880A4EB050404F17F7404F52B
:103CC00000344FF0004545EAC12145EAC32341EAEB
:103CD000505143EA52534FEAC0204FEAC222994260
:103CE00008BF904200F09D804FEA13650FF2441622
:103CF000765D4FEA134506FB05F7C7F1807706FBB3
:103D000007F74FEAD737A7FB03687642A7FB06CE33
:103D1000C8F5803838BFA8F1010807FB08E6A6FB04
:103D2000028C4FF0000EE6FB03CEDCF1000CCEF16E
:103D3000004E38BFAEF1010EA6FB0C584FF0000745
:103D4000E6FB0E87A1FB08C6A0FB07CE16EB0E060E
:103D50004FF0000545F10005E1FB076515F1E04E68
:103D60007EBFA4F580345FEA46066D4116F18007F8
:103D700045F100054FEA172747EA05674FEA152581
:103D80004FEA0666A6F1DE46B6F1805F20D93846D6
:103D900005EBC47124F0010C01EB0C11BCF1FE6FBA
:103DA00002D8F0BCBDE8008124425CBF01F5801E52
:103DB0009EEAC47F02D4F0BCBDE80081244200F139
:103DC0003980A1F1C041F0BCBDE8004100F0AEB9BE
:103DD0004FEAD02040EA41504FEAD1214FEAD222A7
:103DE00042EA43524FEAD323A7FB028607FB03664E
:103DF00005FB02661EEA0E0F58BFA6EB0056B6EB97
:103E000000564FEA520E4EEAC37E18EB0E0E56EBEA
:103E1000530EBCD518EB02085E417F1C55F100051E
:103E2000B5E74FF480154FF000074FF000064FF054
:103E30000008ACE701F1C04101F000414FF0000083
:103E4000F0BCBDE800810CEA131511EA0C1F00D08C
:103E50000CE013EA0C1F00F026804FF0000081EA0E
:103E6000030101F00041F0BCBDE80081F0BCBDE8F9
:103E7000004181EA030100F059B9F0BCBDE80041FE
:103E800070B500F005F900BF097EFC3E00F007B8F0
:103E90004FF0000081EA030101F00041704781EA20
:103EA000030100F043B9F0BCBDE8004122494FF0E6
:103EB00000007047FFFDFBF9F7F5F4F2F0EEEDEBD3
:103EC000E9E8E6E4E3E1E0DEDDDBDAD8D7D5D4D318
:103ED000D1D0CFCDCCCBCAC8C7C6C5C4C2C1C0BF64
:103EE000BEBDBCBBBAB9B8B7B6B5B4B3B2B1B0AF6A
:103EF000AEADACABAAA9A8A8A7A6A5A4A3A3A2A14E
:103F0000A09F9F9E9D9C9C9B9A9999989797969508
:103F100095949393929191908F8F8E8E8D8C8C8BA4
:103F20008B8A89898888878786858584848383822C
:103F3000828181800000FF070000F87F70B5DFF804
:103F400048C11CEA111E1EBF1CEA13159EEA0C0F85
:103F500095EA0C0F00F06F8081EA03044EEAD47EEC
:103F6000AE4421EA4C1123EA4C1341F4801143F48E
:103F70008013AEF17F7EA1FB024CA0FB03653619D6
:103F800055EB0C05A1FB034C4CF10003A0FB021CFC
:103F900016EB0C06654153F10003094218BF46F0C9
:103FA000010613F4007F0BD14FEA03314FEA0530CD
:103FB00041EA155140EA165034036FF003020AE05B
:103FC0004FEAC3214FEAC52041EA555140EA565015
:103FD000F4026FF0020202EB2E4201EB025585EA79
:103FE000CE710AD05FEA440C18BF24F0004450F1AF
:103FF000000041F1000120EAD47040F2FE7C6245ED
:1040000000D270BDA84214BF4FF080444FF040442E
:10401000002E08BF0024BEF1806FA8BFA1F1C041EF
:10402000BDE8704080F2828001F1C04101F00041A2
:104030004FF0000070470CEA13159EEA0C0F18BFF2
:1040400095EA0C0F06D081EA030E4FF000000EF047
:10405000004170BD00F01CF88900013E00F007B877
:1040600000F009B84FEA430C5FEA5C5C08D081EAD3
:10407000030100F05BB84FEA410C5FEA5C5CF6D1EB
:1040800002494FF0000070470000FF070000F87F72
:104090000EF1020E2EF0030E5EF8046B364205D4CC
:1040A000012A43EB030515F5001F12D8012841EB47
:1040B000010C1CF5001F0CD80ED14FEAD17C0CEB83
:1040C0004C0C0CF1020C15F5001F08BF4CEBD37C17
:1040D00004E04FF0080C01E04FEAD37C0CEB4C05F8
:1040E00026FA05F606F00706B6F1040C06D20EEB2A
:1040F000860CBDE870404CF0010C6047DFE80CF026
:10410000090B02024FF00041A1F500214FF0000021
:1041100070BD19461046012851EB010418BFD4F5B3
:10412000001484BF002001F0004170BD0808A0F514
:1041300000114FEA3101704743004FEAD30C4FEAB8
:104140003C0C43401FBF40070CF1605113F0FE4F81
:1041500070471CF0006F03D10CF000410020704745
:104160000CF0004343EA507040EACC0010B500F078
:10417000D8F900BF000000924FEA0001FFF7D6BF58
:104180004FF00041A1F500214FF000007047000002
:1041900090EA010F48BF81F0004100F11482421AF9
:1041A0003CBF801A89184FEAD052A2EBD1534FF08E
:1041B0007F4C1CEA410F18BF9CEA026F00F03B8065
:1041C0004FF0004C4CEA00204CEA012121FA03FC9C
:1041D00010EB0C0C1ED202F1FF325FEA1C2040EB08
:1041E000C25038BF70471CF07F0F4FEA400C18BF19
:1041F000BCF17F4F38BF7047C3F12003994008BF1F
:1042000020F00100BCF17F4F38BF7047A0F1C040E3
:1042100000F0CDB94FEA3C00000A40EBC25028BF85
:104220001CF0FF0F4FEA400CE6D018BFBCF17F4FE7
:1042300038BF7047EAE79CEA026F05D010EA5C0FCE
:1042400008BF00F00040704710B500F06AF900BFE9
:1042500064FBBE3E10B500F033F80CBF0120002017
:1042600010BD10B500F02CF814BF0120002010BDC7
:1042700010B500F06DF88CBF0120002010BD10B506
:1042800000F066F82CBF0120002010BD10B500F032
:1042900093F894BF0120002010BD10B500F08CF8F9
:1042A00034BF0120002010BD401058BFC0F1404075
:1042B000491058BFC1F140418142EFF3008070477F
:1042C00050EA010C00F113801CF5000F58BFBCF53B
:1042D000000F01D48842704707D710F5000F58BF70
:1042E00011F5000F15D488427047894270471CF5BC
:1042F000000F04D5BCF5000FF7D5814270474FF091
:10430000807C1CEB400F38BF1CEB410F01D2814277
:10431000704710B500F005F9922449004FF00050A5
:104320004FF08051FFF7C0BFB0FA80F310FA03F2EC
:10433000C3F19D030AD0D90501EB1220530638BF03
:10434000704700F1010008BF20F001007047000035
:1043500050EA010C00F113801CF5000F58BFBCF5AA
:10436000000F01D48842704707D710F5000F58BFDF
:1043700011F5000F15D488427047894270471CF52B
:10438000000F04D5BCF5000FF7D5814270474FF000
:10439000807C1CEB400F38BF1CEB410F01D28142E7
:1043A000704710B500F0BDF8922449004FF08050DE
:1043B0004FF00051FFF778BF50EA010C00F1138075
:1043C0001CF5000F58BFBCF5000F01D488427047A0
:1043D00007D710F5000F58BF11F5000F15D488420C
:1043E0007047894270471CF5000F04D5BCF5000FDB
:1043F000F7D5814270474FF0807C1CEB400F38BFEF
:104400001CEB410F01D28142704710B500F089F8D2
:10441000922449004FF000504FF08051FFF744BF05
:104420004FF47F0C1CEAD0121EBF1CEAD11392EA93
:104430000C0F93EA0C0F00F0478090EA010F48BF81
:1044400042F480724FF0004C4CEA00204CEA01210B
:1044500002EB0302A0FB0113A2F50002002918BF22
:1044600043F001035B0028BF4FEA330342EB2242D3
:104470005FEA132C4CEBC2502EBFBCEB436FB2F57E
:104480007C0F70474FEA036CBCF1004F08BF20F06F
:104490000100B2F57C0F38BF70470BD582F0FF02E8
:1044A00012F5803FC8BF704700F1C040D8BF00F090
:1044B0000040704700F5000C5FEA4C0C48BF7047A5
:1044C000B0F1C04000F073B80CEAD11390EA010FCC
:1044D00048BF42F48072624538BF634504D280EA27
:1044E000010000F00040704710B500F01AF800BF5E
:1044F0008900013E00F007B800F009B85FEA410CFE
:104500005FEA1C6C08D080EA010000F050B85FEA56
:10451000400C5FEA1C6CF6D14FF00040A0F5800023
:1045200070470EF1020E2EF0030E5EF8044B24428B
:1045300004D44FEA4102B2F17F4F11D84FEA400351
:10454000B3F17F4F0CD80ED14FEAD07C0CEB4C0C62
:104550000CF1020CB2F17F4F08BF4CEBD17C04E0B0
:104560004FF0080C01E04FEAD17C0CEB4C0324FA2D
:1045700003F404F00704B4F1040C06D20EEB840C2F
:10458000BDE810404CF0010C6047DFE80CF0070874
:1045900002024FF00040A0F5800010BD0846420026
:1045A00018BFD2F1807288BF00F0004010BDFF211B
:1045B00041EAD050C005704790EA010F48BF81F032
:1045C00000413FF5ECAD421A04D882F00042A0EB66
:1045D000020011444FEAD052A2EBD1534FF07F4C6E
:1045E0001CEA410F18BF9CEA026F4AD04FF0004C02
:1045F0004CEA00204CEA012121FA03FCB0EB0C0C40
:104600000FD412F0FE0F36D05FEA4C001DD5001219
:1046100040EBC25038BF70471CF03F0F18BF7047C7
:104620000BE05FEA1C20A2F1010240EBC25038BF50
:1046300070471CF07F0F18BF7047C3F120039940EB
:1046400014BF401E20F0010070474FEA122380087B
:1046500008BF7047B0FA80FCA2EB0C02CCF1280C2A
:1046600060FA0CF093EA122F04BF00EBC2507047BF
:104670004FEAC3707047130A5FEADC1008BF704747
:10468000F6E79CEA026F04D010EA5C0F08BF002036
:10469000704710B5FFF745FF40DFF63E81F0004060
:1046A000704700000000000000000102030406073C
:1046B0000809010202030405060708090A0B0C0D8C
:1046C0000E0F1010E8460008000000205000000007
:1046D00028010008384700085000002000070000AB
:1046E000440100080000000008020401080104025F
:1046F0000A0605090A090506010208200000A04073
:104700000000484304000000080A020604050109ED
:10471000080901050406020A14263846535C62643F
:10472000625C5346382614000100000010000000AF
:084730000024F4000000000069
:04000005080000ED02
:00000001FF
